:1000000001308A00222900002D308400831300086B
:10001000031917280630F800F701F70B0D28F80B25
:100020000C287B30F700F70B1328800B0A280800F8
:10003000A60183168801F730831288000130AD00D5
:100040000420831608168312081A28280130A600F7
:10005000831688168312881A2F280230A60083166A
:1000600008178312081B36280330A600831688174A
:100070008312881B3D280430A60083168801FB30BC
:10008000831288000130AD00042083160816831205
:10009000081A4C280530A600831688168312881A81
:1000A00053280630A600831608178312081B5A2807
:1000B0000730A600831688178312881B6128083032
:1000C000A60083168801FD30831288000130AD0040
:1000D0000420831608168312081A70280930A60017
:1000E000831688168312881A77280A30A60083168A
:1000F00008178312081B7E280B30A600831688176A
:100100008312881B85280C30A60083168801FE30D8
:10011000831288000130AD00042083160816831274
:10012000081A94280D30A600831688168312881AA0
:100130009B280E30A600831608178312081BA228DE
:100140000F30A600831688178312881BA928103049
:10015000A6002608F8008A110A124A292E08F8017A
:100160002D020318B6282D08F700C228F701083021
:10017000AF00AD0DF70D2E0877020318F700F80D4C
:10018000AF0BB9280800A00A2008F93C031CA00105
:100190002608AD000A30AE00AE207808A900260877
:1001A000AD000A30AE00AE207708AA002708AD00E7
:1001B0000A30AE00AE207808AB002708AD000A3048
:1001C000AE00AE207708AC008316860101308312A2
:1001D0008600831688018312290888000130AD004B
:1001E00004208316860102308312860020087D3C9D
:1001F000031CFD28A808031D2A16831688018312F4
:100200002A0888000130AD000420831686010430DE
:10021000831286008316880183122B088800013020
:10022000AD000420831686010830831286008316F1
:10023000880183122C0888000130AD0004208A1147
:100240000A128D2983161F149F141F159F11073042
:100250009C0083131F3083058312A001A101A11B01
:1002600035292108173C031C9729A201A21B3C2910
:1002700022083B3C031C9529A5010130A400250858
:10028000013C031C9329031D49292408F43C031C49
:100290009329182802307802FA3E03187E29063E78
:1002A0009929A10AA11B58292108173C031CA10167
:1002B000A5010130A4007E29A1032108803A7F3CDA
:1002C000031C64291730A100A5010130A4007E2978
:1002D000A20AA21B6F2922083B3C031CA201A50114
:1002E0000130A4007E29A2032208803A7F3C031C2F
:1002F0007B293B30A200A5010130A4000130A300FE
:10030000A31B862923081D3C031C8F292108A60056
:100310002208A7000130A800C328A30A8029A40A44
:100320000319A50A3F29A20A3629A10A2F292E2935
:1003300063000A148A100A118207512968297E294C
:060340007E295C297329EF
:02400E00323F3F
:00000001FF
;PIC16F877A
;CRC=9633  CREATED="15-Aðu-20 13:07"
