:1000000000308A001828000025308400831300087F
:10001000031917280630F800F701F70B0D28F80B25
:100020000C287B30F700F70B1328800B0A280800F8
:10003000FF30A00083161F149F141F159F11073057
:100040009C0083131F30830501308312A100803090
:10005000A20021082204A4000030A000831687011A
:10006000831287010130A3002308073C031C4B289F
:100070000030A00083168701831224088700FA301D
:10008000A50004200310A10D0310A20C21082204D6
:10009000A400A30A34280130A3002308073C031C52
:1000A00064280030A000831687018312240887008B
:1000B000FA30A50004200310A10C0310A20D2108A2
:0C00C0002204A400A30A4D28322863008B
:02400E00323F3F
:00000001FF
;PIC16F877A
;CRC=9230  CREATED="14-Aðu-20 13:13"
