:1000000000308A008C2800002D08F8012C0203180B
:100010000C282C08F7001828F7010830AE00AC0DAA
:10002000F70D2D0877020318F700F80DAE0B0F2817
:1000300008002C3084008313000803192C28063094
:10004000F800F701F70B2228F80B21287B30F70086
:10005000F70B2828800B1F280800A00A2008F93C6D
:10006000031CA0012508AC000A30AD00042078086C
:10007000A8002508AC000A30AD0004207708A900CC
:100080002608AC000A30AD0004207808AA00260833
:10009000AC000A30AD0004207708AB00831686015F
:1000A0000130831286008316880183122808880095
:1000B0000130AC00192083168601023083128600BD
:1000C00020087D3C031C6728A708031D29168316FA
:1000D00088018312290888000130AC00192083169A
:1000E00086010430831286008316880183122A0851
:1000F00088000130AC001920831686010830831275
:1001000086008316880183122B0888000130AC001A
:1001100019208A110A12B32883161F149F141F1561
:100120009F1107309C0083131F3083058312A001A9
:10013000A1012108633C031CBB28A2012208633CE7
:10014000031CB928A4010130A300A408031DB7288B
:100150002308643C031CB7282108A5002208A60038
:100160000130A7002D28A30A0319A40AA528A20A72
:0A0170009E28A10A99289828630030
:02400E00323F3F
:00000001FF
;PIC16F877A
;CRC=8ECB  CREATED="14-Aðu-20 21:52"
