:1000000001308A006F2900000A108A100A11820745
:1000100028340C3401340634C224CC23C929C12C21
:10002000412900004234DD344C344734DD3453344C
:10003000413459344134523400342730840083131E
:100040000008031930280630F800F701F70B2628BE
:10005000F80B25287B30F700F70B2C28800B232882
:1000600008002E0EF039F7000F30080577048800DD
:10007000000008140230F700F70B3C283F2800006E
:10008000081008000808F700080E0F39F8000800EB
:100090008316081088100811831288100F308316F9
:1000A0000805F038880083120815000008140000C5
:1000B00042207808AE000810000008145F2860286D
:1000C000000042207808AD0008100F3083160805A4
:1000D000880083122E0EF700F030F70577082D0404
:1000E000F8007808AD00AD1B4E282B1C88102B188B
:1000F000881400000811000008102C0EAD000F300D
:10010000AD052D08AE0031202C080F39AD00AE0032
:10011000312008000F308316080588000810881069
:10012000081183128810081108100F30A7001D2035
:100130000130A2002208033C031CA6280330AE00B5
:1001400031200530A7001D20A20A9A280230AE00F7
:1001500031200530A7001D20A2012208033C031C0A
:10016000BA2822080420A300AB012308AC004820D1
:10017000A20AAD288A110A127B29280BC028C3289D
:100180004030A900C428A90101302702A907290885
:100190008038AA00AB012A08AC00482008002608D5
:1001A000073A0319DD280B3A0319E228063A031926
:1001B000EA28023A0319F028F5280130A700A80020
:1001C000BD20FA28AB010130AC0048200230A70066
:1001D0001D20FA280130A7000230A800BD20FA280F
:1001E000AB011030AC004820FA280130AB002608E3
:1001F000AC00482008000B08A2008B1383160317DD
:100200008C170C140000000083120C087F390319AE
:1002100042290313A30003170D080313A4000317B7
:100220000F080313A5002308A600CF2024080317F6
:100230008D000313250803178F0083168C170C14E9
:100240000000000083120C0D0E0D7F3903194229A6
:100250000313A30003170D080313A40003170F08CB
:100260000313A5002308A600CF20240803178D0040
:100270000313250803178F008D0A03198F0A031330
:10028000FE2803170313A21B8B178A110A12902949
:10029000831603178C170C140000000083128C08BF
:1002A00003196B290D080313A20003170F0803138A
:1002B000A30003170C080313A600CF20220803177E
:1002C0008D000313230803178F008D0A03198F0A6B
:1002D00003134829031703138A110A12AA29831644
:1002E0001F149F141F159F1107309C0083131F308C
:1002F000830583128A280130A1002108063C031CD3
:1003000095290C30A600CF202108A7000130A800B5
:10031000BD200C3003178D0000308F000313FB2825
:10032000C830A7001D20A10A7D290630A1002108A0
:10033000003C0318AF290C30A600CF202108A700ED
:100340000130A800BD20123003178D0000308F004F
:1003500003134829C830A7001D20A10397297B2932
:02036000630038
:02400E00323F3F
:00000001FF
;PIC16F877A
;CRC=D1D2  CREATED="15-Aðu-20 17:41"
