:1000000001308A00BC2900000A108A100A118207F8
:1000100028340C34013406340C104F29D42020101D
:100020000A10A012301ACC3A00000C1049264529BB
:100030004910200520102518342675000C10C72201
:10004000D22420100A10A012301ACC3A00002F300F
:1000500084008313000803193A280630F800F701DA
:10006000F70B3028F80B2F287B30F700F70B3628DA
:10007000800B2D280800360EF039F7000F300805E8
:1000800077048800000008140230F700F70B4628B8
:1000900049280000081008000808F700080E0F396A
:1000A000F8000800831608108810081183128810C1
:1000B0000F3083160805F0388800831208150000F9
:1000C000081400004C207808B6000810000008143E
:1000D00069286A2800004C207808B50008100F3005
:1000E0008316080588008312360EF700F030F705F6
:1000F00077083504F8007808B500B51B5828331C7C
:100100008810331888140000081100000810340EFD
:10011000B5000F30B5053508B6003B2034080F395F
:10012000B500B6003B2008000F3083160805880094
:1001300008108810081183128810081108100F3059
:10014000AF0027200130A5002508033C031CB02880
:100150000330B6003B200530AF002720A50AA428B5
:100160000230B6003B200530AF002720A50125084E
:10017000033C031CC42825080420A600B30126085C
:10018000B4005220A50AB7288A110A12CA29300BD6
:10019000CA28CD284030B100CE28B10101302F024D
:1001A000B10731088038B200B3013208B4005220E0
:1001B00008002E08073A0319E7280B3A0319EC2820
:1001C000063A0319F428023A0319FA28FF280130E5
:1001D000AF00B000C7200429B3010130B4005220A1
:1001E0000230AF00272004290130AF000230B000F8
:1001F000C7200429B3011030B40052200429013073
:10020000B3002E08B400522008000B08A6008B1380
:10021000831603178C170C140000000003183729ED
:1002200083120C087F390313A70003170D0803136B
:10023000A80003170F080313A9002708AE00D92050
:10024000280803178D000313290803178F0083164E
:100250008C170C140000000083120313A50B312926
:100260003429831603173729562983160317831257
:100270000C0D0E0D7F390313A70003170D08031390
:10028000A80003170F080313A9002708AE00D92000
:10029000280803178D000313290803178F008D0A00
:1002A00003198F0A03100313A50B0829A61B8B172C
:1002B0000800AD010408AC002D10831B2D14260E80
:1002C000F038A800A807E23EA900323EAB0026089D
:1002D0000F39A907A907AB07E93EAA00AA07AA0791
:1002E000250E0F39AA07AB07AA0DAB0DAB09AB0D55
:1002F00025080F39AB07A80D0730A7000A30AB0758
:10030000AA03031C7F29AA07A903031C8329A907A1
:10031000A803031C8729A807A703031C8B292730E0
:100320008400831307302C052C1384072B30040220
:1003300003192C170008F700031DA6292C1BA6295A
:100340002C1AB829AC19A6292030A929AC152C12D1
:100350003030F707A6010408A5002610831B2614D9
:100360007708AE00D9202508840083132618831748
:10037000840A2C1F96290800FF30A00083161F1442
:100380009F141F159F1107309C0083131F30830596
:100390008312942883161F1383121F139F1383162F
:1003A0009F1783121F1483161F109F101F119F1178
:1003B0002830F80083121F08C73978049F000030E6
:1003C000A00083168701831287012011200883165D
:1003D0008700831207110C3097000030F8000538B1
:1003E0009200FF30831692008312950183161F102E
:1003F0009F101F119F112830F80083121F08C73962
:1004000078049F001F151F19032A83161E088312E4
:10041000A3001E08A4000130AF002720A308031D7D
:10042000412A2408023C031D412AA201A10183168E
:100430001F149F141F159F110C30831203178D007A
:1004400000308F0003100B300313A5000521093085
:1004500084002208A6002108A50059212208F900DD
:100460002108F800F90CF80CF90CF80CF90C7808D4
:100470009500F90C790C3039F7001708CF3977045B
:1004800097002408013C03188F2AFF3A031D4C2AC9
:100490002308003C03188F2A2010200883168700A9
:1004A0008312071400302302A5002408A60002309E
:1004B000031C0330A6020310A50DA60D013025076D
:1004C000A1002608A2000318A20A83161F149F1475
:1004D0001F159F111530831203178D0000308F00F8
:1004E00003100C300313A5000521093084002208F5
:1004F000A6002108A50059212208F9002108F800CA
:10050000F90CF80CF90CF80CF90C78089500F90CBA
:10051000790C3039F7001708CF3977049700240891
:10052000013C031CD62A2010200883168700831262
:1005300007102308FF3CA5000130A6002408031C77
:10054000240FA6020310A50DA60D01302507A1005A
:100550002608A2000318A20A83161F149F141F1551
:100560009F111E30831203178D0000308F0003107F
:100570000B300313A5000521093084002208A600D2
:100580002108A50059212208F9002108F800F90CDA
:10059000F80CF90CF80CF90C78089500F90C790CAA
:1005A0003039F7001708CF39770497000530AF00CE
:0605B0002720E52963008D
:02400E00323F3F
:00000001FF
;PIC16F877A
;CRC=F848  CREATED="17-Aðu-20 11:20"
