:1000000001308A0021290000293084008313000870
:10001000031917280630F800F701F70B0D28F80B25
:100020000C287B30F700F70B1328800B0A280800F8
:1000300083168801F730831288000130A90004205C
:10004000831608168312081A27280130A100831688
:1000500088168312881A2E280230A10083160817EA
:100060008312081B35280330A100831688178312DA
:10007000881B3C280430A10083168801FB308312C2
:1000800088000130A9000420831608168312081A7C
:100090004B280530A100831688168312881A52282F
:1000A0000630A100831608178312081B5928073051
:1000B000A100831688178312881B60280830A100CE
:1000C00083168801FD30831288000130A9000420C6
:1000D000831608168312081A6F280930A1008316A8
:1000E00088168312881A76280A30A100831608170A
:1000F0008312081B7D280B30A100831688178312FA
:10010000881B84280C30A10083168801FE308312DE
:1001100088000130A9000420831608168312081AEB
:1001200093280D30A100831688168312881A9A2806
:100130000E30A100831608178312081BA1280F3068
:10014000A100831688178312881BA8281030A100ED
:100150002108F8008A110A122E292A08F80129021A
:100160000318B5282908F700C128F7010830AB00AB
:10017000A90DF70D2A0877020318F700F80DAB0B4D
:10018000B8280800A00A2008F93C031CA001220896
:10019000A9000A30AA00AD207808A5002208A9000D
:1001A0000A30AA00AD207708A6002308A9000A306B
:1001B000AA00AD207808A7002308A9000A30AA00E9
:1001C000AD207708A80083168601013083128600CF
:1001D000831688018312250888000130A9000420B5
:1001E0008316860102308312860020087D3C031CA2
:1001F000FC28A408031D26168316880183122608EE
:1002000088000130A900042083168601043083127F
:100210008600831688018312270888000130A90010
:100220000420831686010830831286008316880115
:100230008312280888000130A90004208A110A12BC
:10024000352983161F149F141F159F1107309C001A
:1002500083131F3083058312A00118287808A1009A
:0E026000A2012108A300A401C2282D296300D9
:02400E00323F3F
:00000001FF
;PIC16F877A
;CRC=F61F  CREATED="14-Aðu-20 22:33"
