:1000000001308A00B42900000A108A100A11820700
:1000100028340C34013406340C102014203C2010F9
:100020002C10A03CA01420100A10A012301ACC3AB8
:100030002016A012301ACC3A00003330840083130B
:100040000008031930280630F800F701F70B2628BE
:10005000F80B25287B30F700F70B2C28800B232882
:1000600008003A0EF039F7000F30080577048800D1
:10007000000008140230F700F70B3C283F2800006E
:10008000081008000808F700080E0F39F8000800EB
:100090008316081088100811831288100F308316F9
:1000A0000805F038880083120815000008140000C5
:1000B00042207808BA000810000008145F28602861
:1000C000000042207808B90008100F308316080598
:1000D000880083123A0EF700F030F70577083904EC
:1000E000F8007808B900B91B4E28371C881037185B
:1000F00088140000081100000810380EB9000F30F5
:10010000B9053908BA00312038080F39B900BA00EA
:10011000312008000F308316080588000810881069
:10012000081183128810081108100F30B3001D2029
:100130000130A9002908033C031CA6280330BA009B
:1001400031200530B3001D20A90A9A280230BA00D8
:1001500031200530B3001D20A9012908033C031CF0
:10016000BA2829080420AA00B7012A08B8004820A4
:10017000A90AAD288A110A12C029340BC028C32845
:100180004030B500C428B50101303302B507350849
:100190008038B600B7013608B80048200800320899
:1001A000073A0319DD280B3A0319E228063A031926
:1001B000EA28023A0319F028F5280130B300B40008
:1001C000BD20FA28B7010130B80048200230B30042
:1001D0001D20FA280130B3000230B400BD20FA28F7
:1001E000B7011030B8004820FA280130B7003208B3
:1001F000B800482008000B08AA008B1383160317C9
:100200008C170C140000000003182D2983120C0811
:100210007F390313AB0003170D080313AC0003175A
:100220000F080313AD002B08B200CF202C080317D2
:100230008D0003132D0803178F0083168C170C14E1
:100240000000000083120313A90B27292A29831613
:1002500003172D294C298316031783120C0D0E0D3D
:100260007F390313AB0003170D080313AC0003170A
:100270000F080313AD002B08B200CF202C08031782
:100280008D0003132D0803178F008D0A03198F0AA1
:1002900003100313A90BFE28AA1B8B178A110A123D
:1002A0008B2AB1010408B0003110831B31142A0ECF
:1002B000F038AC00AC07E23EAD00323EAF002A0899
:1002C0000F39AD07AD07AF07E93EAE00AE07AE0789
:1002D000290E0F39AE07AF07AE0DAF0DAF09AF0D49
:1002E00029080F39AF07AC0D0730AB000A30AF0754
:1002F000AE03031C7729AE07AD03031C7B29AD07B2
:10030000AC03031C7F29AC07AB03031C83292B30F0
:100310008400831307303005301384072F30040224
:10032000031930170008F700031D9E29301B9E2972
:10033000301AB029B0199E292030A129B0153012E9
:100340003030F707AA010408A9002A10831B2A14D9
:100350007708B200CF202908840083132A18831756
:10036000840A301F8E29080083161F149F141F153E
:100370009F1107309C0083131F30830583128A2846
:1003800083161F1383121F139F1383169F17831245
:100390001F1483161F109F101F119F112830F80083
:1003A00083121F08C73978049F0083161F109F10FF
:1003B0001F119F112830F80083121F08C7397804D5
:1003C0009F001F151F19E22983161E088312A30020
:1003D0001E08A4000130B3001D203030F8001F08B3
:1003E000C73978049F001F151F19F42983161E08AA
:1003F0008312A1001E08A2000130B3001D20A10835
:10040000031D082A2208023C031D082AA601A50193
:10041000A308031D112A2408023C031D112AA80168
:10042000A7012208013C03182F2AFF3A031D1C2AAA
:100430002108003C03182F2A00302102A9002208BD
:10044000AA000230031C0330AA020310A90DAA0D52
:1004500001302907A5002A08A6000318A60A2408C7
:10046000013C03184D2AFF3A031D3A2A2308003C99
:1004700003184D2A00302302A9002408AA000230E4
:10048000031C0330AA020310A90DAA0D013029078D
:10049000A7002A08A8000318A80A2208013C031C88
:1004A000642A2108FF3CA9000130AA002208031C8D
:1004B000220FAA020310A90DAA0D01302907A500D9
:1004C0002A08A6000318A60A2408013C031C7B2A5C
:1004D0002308FF3CA9000130AA002408031C240FB4
:1004E000AA020310A90DAA0D01302907A5002A08A8
:1004F000A6000318A60A83161F149F141F159F1128
:100500000C30831203178D0000308F00031013305E
:100510000313A900FB28093084002208AA0021083F
:10052000A90051212030B200CF202C30B200CF20C2
:100530002030B200CF20093084002408AA0023080C
:0E054000A90051211E30B3001D20D5296300F3
:02400E00323F3F
:00000001FF
;PIC16F877A
;CRC=887B  CREATED="16-Aðu-20 16:23"
