:020000040000FA
:020000000528D1
:0800080005288316F030880082
:100010008601870183128701860188010030A700CD
:100020000030A6000030A5000030A4001430AC0061
:100030001730AD00342045201F20C3201A28A50109
:10004000A4012C08A300031003110A302302031992
:100050002E28031830282308A4000800A50A080049
:10006000A50A0A30A3022328031003112D082C022D
:1000700003193F2803184228871007140800871027
:1000800007100800871407100800F7308800DD20EB
:10009000081A4F280030A5000130A4000800881A73
:1000A0005728030A21302C020319AC030800081B4F
:1000B0005E280030A5000330A4000800881B6528D6
:1000C0000030A5000430A4000800FB308800DD20CB
:1000D000081A6F280030A5000630A4000800881A0E
:1000E000772803030F302C020319AC0A0800081B01
:1000F0007E280030A5000730A4000800881B852852
:100100000030A5000830A4000800FD308800DD2084
:10011000081A8F280030A5000930A4000800881AAA
:1001200096280130A5000030A4000800081B9D2877
:100130000130A5000130A4000800881BA42801306C
:10014000A5000230A4000800FE308800DD20081A57
:10015000AE280130A5000330A4000800881AB52895
:100160000130A5000430A4000800081BBC280130A1
:10017000A5000530A4000800881B08000130A50078
:100180000630A40008000F30A800270888000130BE
:100190008600DD202608880002308600DD20250844
:1001A000880004308600DD2024088800083086009E
:1001B000DD20A80BC528860108003230A0003230AF
:1001C000A1003230A200A20BE328A10BE128A00B72
:0401D000DF2808001C
:02400E007A3FF7
:00000001FF
