:020000040000FA
:020000000528D1
:0800080005288316860188011A
:100010008312860188010030A7000030A60000305E
:10002000A5000030A4000A30A8000A30A9000A3058
:10003000AA000A30AB000330A3003120A30B1D2817
:10004000A40AAB0B1B28A401A50AAA0B1928A50119
:10005000A60AA90B1728A601A70AA80B1528A7010D
:1000600013280830860024088800462004308600C3
:100070002508880046200230860026088800462091
:100080000130860027088800462008000130A000C3
:100090003230A1003230A200A20B4C28A10B4A281A
:0600A000A00B4828080037
:02400E007A3FF7
:00000001FF
