:020000040000FA
:020000000528D1
:0800080005288316071083127E
:100010000710831687108312871083160711831227
:100020000711831687118312871183160712831213
:1000300007128316871283128712831607138312FF
:10004000071383168713831287130714662007107C
:100050006620871466208710662007156620071122
:10006000662087156620871166200716662007120E
:1000700066208716662087126620071766200713FA
:1000800066208717662087136620871766208713E8
:1000900066200717662007136620871666208712DA
:1000A00066200716662007126620871566208711CE
:1000B00066200715662007116620871466208710C2
:1000C0006620071466200710662025286430A000EB
:1000D0006430A1003230A200A20B6C28A10B6A2868
:0600E000A00B68280800D7
:02400E007A3FF7
:00000001FF
