:020000040000FA
:020000000528D1
:08000800052883169F01860103
:10001000F03088008701831229309F008601880113
:1000200087010030A7000030A6000030A500003096
:10003000A4001430A9008030A80022204E202820DF
:10004000E2201D281F151F1923281E08A9000800DB
:10005000A601A501A4012B08AA0003100311643016
:100060002A0203193628031838283C28A60A080053
:10007000A60A6430AA022D28031003110A302A02AE
:1000800003194728031849282A08A4000800A50ACC
:100090000800A50A0A30AA023C2808000310031130
:1000A0002808290203195B2803185D2829087F3CCA
:1000B000AB00AB0D0800AB01080080302902AB009B
:1000C000AB0D0800F7308800FC20081A6C280030BF
:1000D000A5000130A4000800881A73280030A5008C
:1000E0000230A4000800081B7A280030A500033065
:1000F000A4000800881B81280030A5000430A4005B
:100100000800FB308800FC20081A8B280030A5006E
:100110000530A4000800881A9428A90A0311213088
:1001200029020319A9030800081B9B280030A50019
:100130000730A4000800881BA2280030A500083062
:10014000A4000800FD308800FC20081AAC2800300C
:10015000A5000930A4000800881AB528A9030311D6
:100160000F3029020319A90A0800081BBC28013016
:10017000A5000130A4000800881BC3280130A50099
:100180000230A4000800FE308800FC20081ACD28A8
:100190000130A5000330A4000800881AD4280130DB
:1001A000A5000430A4000800081BDB280130A500CE
:1001B0000530A4000800881B08000130A5000630A7
:1001C000A40008001430A30008308600240888002A
:1001D000FC200430860025088800FC2002308600C0
:1001E00026088800FC200130860027088800FC20B3
:1001F000A30BE428860108000130A0003230A100E2
:100200003230A200A20B0229A10B0029A00BFE286C
:020210000800E4
:02400E007A3FF7
:00000001FF
