:1000000002308A00D42A00000A108A100A118207DE
:1000100028340C34013406348C29E1336110C437A0
:10002000EE3AF93772052024693DE91EA53A000031
:100030008C296F366110C437EE3AF93772052024E7
:10004000693DE91EA53A00012A30840083130008A7
:10005000031937280630F800F701F70B2D28F80BA5
:100060002C287B30F700F70B3328800B2A28080058
:10007000310EF039F7000F300805770488000000D2
:1000800008140230F700F70B432846280000081038
:1000900008000808F700080E0F39F800080083165A
:1000A000081088100811831288100F308316080575
:1000B000F038880083120815000008140000492059
:1000C0007808B100081000000814662867280000AE
:1000D00049207808B00008100F3083160805880002
:1000E0008312310EF700F030F70577083004F8007E
:1000F0007808B000B01B55282E1C88102E188814C4
:1001000000000811000008102F0EB0000F30B005DD
:100110003008B10038202F080F39B000B100382066
:1001200008000F3083160805880008108810081191
:1001300083128810081108100F30AA002420013003
:10014000A4002408033C031CAD280330B100382070
:100150000530AA002420A40AA1280230B1003820CA
:100160000530AA002420A4012408033C031CC12854
:1001700024080420A500AE012508AF004F20A40AE2
:10018000B4288A110A12E42AA40183168801F730E0
:10019000831288000130AA002420831608168312D7
:1001A000081AD4280130A400831688168312881AEE
:1001B000DB280230A400831608178312081BE228EC
:1001C0000330A400831688178312881BE9280430A3
:1001D000A40083168801FB30831288000130AA0036
:1001E0002420831608168312081AF8280530A40064
:1001F000831688168312881AFF280630A4008316F7
:1002000008178312081B06290730A40083168817D5
:100210008312881B0D290830A40083168801FD3045
:10022000831288000130AA00242083160816831246
:10023000081A1C290930A400831688168312881A0C
:1002400023290A30A400831608178312081B2A29C1
:100250000B30A400831688178312881B31290C30B9
:10026000A40083168801FE30831288000130AA00A2
:100270002420831608168312081A40290D30A40082
:10028000831688168312881A47290E30A400831615
:1002900008178312081B4E290F30A40083168817F5
:1002A0008312881B55291030A4002408F8008A11F5
:1002B0000A12E52A831685010A3083128500250873
:1002C000A600A60AA60303196929FF30AA00242064
:1002D00062292408AA00242083168501063083128F
:1002E00085002508A600A60AA60303197B29FF306E
:1002F000AA00242074292408AA002420831685013A
:100300000530831285002508A600A60AA603031956
:100310008D29FF30AA00242086292408AA00242041
:10032000831685010930831285002508A600A60AD8
:10033000A60303199F29FF30AA0024209829240826
:10034000AA00242083168501831285018A110A12CE
:100350000C2B2B0BAC29AF294030AC00B029AC01E1
:1003600001302A02AC072C088038AD00AE012D0800
:10037000AF004F2008002908073A0319C9290B3A92
:100380000319CE29063A0319D629023A0319DC29A2
:10039000E1290130AA00AB00A921E629AE01013014
:1003A000AF004F200230AA002420E6290130AA0025
:1003B0000230AB00A921E629AE011030AF004F207A
:1003C000E6290130AE002908AF004F2008000B08D5
:1003D000A5008B13831603178C170C140000000064
:1003E0000318192A83120C087F390313A600031778
:1003F0000D080313A70003170F080313A80026080E
:10040000A900BB21270803178D0003132808031731
:100410008F0083168C170C14000000008312031346
:10042000A40B132A162A83160317192A382A8316AF
:10043000031783120C0D0E0D7F390313A60003174B
:100440000D080313A70003170F080313A8002608BD
:10045000A900BB21270803178D00031328080317E1
:100460008F008D0A03198F0A03100313A40BEA29C6
:10047000A51B8B1708002708F80126020318432A3A
:100480002608F7004F2AF7010830A800A60DF70D3F
:10049000270877020318F700F80DA80B462A080072
:1004A00078082408A6006430A7003B227708A4003F
:1004B00078083030031D632AA51C6A2AA5196A2A08
:1004C000251A2030662AA51125122514F807780868
:1004D000A900BB212408A6000A30A7003B22770808
:1004E000A40078083030031D7B2AA5197F2A251C1B
:1004F0007F2A251A2030F8077808A900BB21303060
:10050000A4072408A900BB2108008316850109302F
:10051000831285002508A600A60AA6030319942ABB
:10052000FF30AA0024208D2A2408AA002420831644
:1005300085010530831285002508A600A60AA603BA
:100540000319A62AFF30AA0024209F2A2408AA0003
:100550002420831685010630831285002508A60015
:10056000A60AA6030319B82AFF30AA002420B12A3C
:100570002408AA002420831685010A3083128500EE
:100580002508A600A60AA6030319CA2AFF30AA0056
:100590002420C32A2408AA0024208316850183125C
:1005A00085018A110A123B2B83161F149F141F15F5
:1005B0009F1107309C0083131F3083053230831254
:1005C000A100A201A3019128C42802307802FA3EBA
:1005D00003183B2B063E3D2B0530A1072108633C49
:1005E0000318F42A6430A1007830AA002420A20164
:1005F000A3013B2B0530A1022108053C031C022B63
:100600000530A1007830AA002420A201A3013B2BD1
:10061000A5012108A4005A29A208031D1E2B0C3095
:1006200003178D0000308F00031014300313A40053
:10063000E7212108A4001B30A50050220130A200B0
:10064000A3013B2BA308031D342B183003178D0087
:1006500000308F00031014300313A400E721210899
:10066000A4001B30A50050220130A300A201A50167
:100670002108A400852AE42A63000A148A140A11B6
:0E0680008207EC2A082B3B2B3B2BFA2A222B5D
:02400E00323F3F
:00000001FF
;PIC16F877A
;CRC=F9CC  CREATED="15-Aðu-20 18:24"
