:020000040000FA
:020000000528D1
:0800080005288316F030880082
:1000100086018312860188010030A7000030A60007
:100020000030A5000030A400932017201428F730DA
:100030008800A920081A21280030A5000130A4005A
:100040000800881A28280030A5000230A400080003
:10005000081B2F280030A5000330A4000800881BCF
:1000600036280030A5000430A4000800FB308800CA
:10007000A920081A40280030A5000530A400080077
:10008000881A47280030A5000630A4000800081B85
:100090004E280030A5000730A4000800881B552812
:1000A0000030A5000830A4000800FD308800A92019
:1000B000081A5F280030A5000930A4000800881A3B
:1000C00066280130A5000030A4000800081B6D2838
:1000D0000130A5000130A4000800881B74280130FD
:1000E000A5000230A4000800FE308800A920081AEC
:1000F0007E280130A5000330A4000800881A852856
:100100000130A5000430A4000800081B8C28013031
:10011000A5000530A4000800881B08000130A500D8
:100120000630A40008002708880001308600A920B6
:100130002608880002308600A9202508880004309F
:100140008600A9202408880008308600A92086019E
:1001500008003230A0003230A1003230A200A20BE1
:0C016000AF28A10BAD28A00BAB280800B5
:02400E007A3FF7
:00000001FF
